:100000000C9492020C94CA020C94CA020C94CA0278
:100010000C94CA020C94CA020C94CA020C94CA0230
:100020000C94CA020C94CA020C94A6210C947A2255
:100030000C94C61B0C94CA020C94CA020C94CA02FB
:100040000C94CA020C94CA020C94CA020C94CA0200
:100050000C94CA020C944D1C0C94CA020C94CA0253
:100060000C94CA020C94CA020C94CA020C94CA02E0
:100070000C94CA020C94CA020C94CA020C94CA02D0
:100080000C94CA020C94CA020C94CA020C94CA02C0
:100090000C94CA020C94CA020C94CA020C94CA02B0
:1000A0000C94CA020C94CA020C94CA023A003B0097
:1000B00035001E001F002000210022002300240024
:1000C0002500260027002D002E0000002A002C000D
:1000D0003C003D0000002B0014001A000800150031
:1000E00017001C0018000C00120013002F00300035
:1000F00031004C003E003F000000390004001600B3
:10010000070009000A000B000D000E000F0033006D
:100110003400000028004B00400041000000E100D6
:1001200000001D001B000600190005001100100052
:10013000360037003800E10052004E004200430014
:100140000000E000E300E20000000000000000000A
:100150002C000000000000000151500051004F0031
:100160000100010001000100010001000100010087
:100170000100010001000100010001000100000078
:100180000100010001000100000001000100010068
:100190000100010001000100010001000100010057
:1001A0000100010001000100010001000000010048
:1001B0000100010001000100010001000100010037
:1001C0000100010001000000010001000100010028
:1001D0000000010000000100010001000100010019
:1001E0000100010001000100010001000100010007
:1001F00001000100000001000100010000000000FA
:1002000000000000010000000000000001000100EB
:1002100001000100010001000100010001000100D6
:1002200001000100010001000100010001000100C6
:1002300001000000010001000100010000000100B8
:1002400001000100010001000100010001000100A6
:100250000100010001000100010001000100010096
:100260000000010001000100010001000100010087
:100270000100010001000100010000000100010077
:100280000100010000000100000001000100010068
:100290000100010001000100010001000100010056
:1002A0000100010001000100000001000100010047
:1002B000000000000000000001000000000000003D
:1002C000010001000100010000000000000000002A
:1002D0002A2B2800000000000000000000000000A1
:1002E00000000029000000002C1E342021222434AC
:1002F0002627252E362D3738271E1F20212223247E
:1003000025263333362E37381F0405060708090A19
:100310000B0C0D0E0F101112131415161718191AB5
:100320001B1C1D2F3130232D350405060708090A33
:100330000B0C0D0E0F101112131415161718191A95
:100340001B1C1D2F3130354C000000000000000048
:10035000000000000000000000000000000000009D
:100360000000000000000000000000007E0F00D42C
:10037000FFFFFFC700000078120346006F00720005
:100380006500730074003600350000000C03540053
:1003900069006D0061006C0000000403090409029B
:1003A0005B00030100A0FA09040000010301010041
:1003B0000921110100012240000705810308000105
:1003C00009040100020300000009211101000122BB
:1003D0002200070582032000010705030320000116
:1003E000090402000103000000092111010001229B
:1003F000B60007058403200001120100020000007E
:1004000008EDFE60600100010200010660FF096165
:10041000A1010962150026FF0095207508810209D7
:1004200063150026FF00952075089102C00501099B
:1004300002A10185020901A1000509190129081578
:100440000025019508750181020501093009311562
:1004500081257F95027508810609381581257F95CC
:100460000175088106050C0A38021581257F950162
:1004700075088106C0C005010980A1018503190125
:100480002AB700150126B700950175108100C00537
:100490000C0901A101850419012AA002150126A059
:1004A00002950175108100C005010906A1018506AC
:1004B000050719E029E71500250195087501810256
:1004C0000507190029EF1500250195F07501810236
:1004D0000508190129059505750191029501750316
:1004E0009101C005010906A101050719E029E715D9
:1004F00000250195087501810295017508810105A6
:1005000007190029FF150026FF00950675088100D0
:1005100005081901290595057501910295017503D5
:100520009101C00011241FBECFEFDAE0DEBFCDBFC6
:1005300004B603FE18C08091DF029091E002A09102
:10054000E102B091E2028730904BA740B04B59F4E2
:100550001092DF021092E0021092E1021092E20289
:10056000E0E0F8E3099511E0A0E0B1E0EEE0FAE4A4
:1005700002C005900D92A03AB107D9F722E0A0EA97
:10058000B1E001C01D92AF3DB207E1F70E94BD127C
:100590000C94DC240C94000081E0089581E008951F
:1005A0000E94CE02089508950E94D3020895A5E006
:1005B000B0E0EDEDF2E00C94512449835A83309180
:1005C000A30189819A81311119C0662399F02223F0
:1005D00089F00E947409182F682F89819A810E94DE
:1005E000500969817A81812F0E94B0182596E3E035
:1005F0000C946D240E946209182FF3CF0E94740995
:1006000069817A81F1CFFC01262F4081518162817D
:10061000738184810E94D702089581E00895CF9369
:10062000DF93EC0160E00E940303BE010E94D4024C
:10063000DF91CF910895E1E0F0E0DF0102C0AA0F61
:10064000BB1F6A95E2F7BD01DF0102C0AA0FBB1F05
:100650004A95E2F76A2B01C0EE0F2A95EAF7962F2A
:100660009823961302C08E2B0895E0958E2308954B
:10067000242F462F682F8091C8010E941B030E94DF
:10068000B00808950E94261108950E942A11089525
:1006900008950E944D080E9448032FEF84E39CE0D8
:1006A000215080409040E1F700C0000008950E9472
:1006B00049030E94711C08950E9449030E94951CE1
:1006C00008950F931F93CF93DF938C0161E00E94F5
:1006D0000303EC01B8010E94B315811106C080E04C
:1006E000DF91CF911F910F910895B801CE010E9423
:1006F000D0028823A1F3B801CE010E94F519882306
:1007000071F3B801CE010E94A316882341F3B8010A
:10071000CE010E946719882311F3F8018281882392
:1007200061F0CA35FDE5DF0701F158F4C115ECE5CC
:10073000DE0791F0CE3DDC4591F0C8010E94CC026D
:10074000CFCFCC358DE5D80769F090F0C73ADD45BD
:10075000A1F70E945C03C3CF0E945703C0CF0E9441
:100760002D0EF7CF0E94670DE8CF0E94710DE5CFE7
:100770000E94750DE2CF0E94A01B0E949F04089565
:100780000E94A3040E94A51B0895B0E0A0E0EBEC3A
:10079000F3E00C944D24E82FF0E0E853FD4FD490A3
:1007A000282F26952695269530E0F901E859FC4F2B
:1007B0000491877010E0082E02C0159507950A94E1
:1007C000E2F701701127F901E85AFC4FE490F12C8F
:1007D000082E02C0F594E7940A94E2F791E0E9222A
:1007E000FF24F901E85BFC4FC491D0E002C0D5952D
:1007F000C7958A95E2F7C170DD270115110519F03B
:1008000081EE0E94EE04E114F10419F086EE0E94DC
:10081000EE048D2D0E94F005E114F10419F086EE2E
:100820000E947F050115110519F081EE0E947F05D8
:10083000CD2B19F08CE20E94F005CDB7DEB7E7E0D2
:100840000C946924EF92FF920F931F93CF93DF9341
:10085000EC01162F0AE08881882309F454C0813006
:1008600009F04EC08981813099F47E0122E0E20EC8
:10087000F11C8A810E94F005E7012196812F8150A9
:1008800050F3EFE9FFE03197F1F700C00000F7CF38
:10089000823041F47E0182E0E80EF11C8A810E94E0
:1008A000EE04EACF833041F47E01E2E0EE0EF11C6B
:1008B0008A810E947F05E0CF843011F02196DDCF40
:1008C0002A81229690E080E0AE014F5F5F4F205377
:1008D000330B2A30310548F0019778F2EFE9FFE059
:1008E0003197F1F700C00000F7CF089FB001099FD2
:1008F000700D1124C901860F971F2981EA01E4CFE9
:100900000E94C503BACFCDB7DEB7E6E00C946A24E7
:1009100060E00E942204089508950E948C040895C6
:1009200081E008950E94900408950895CF93C82F00
:100930000E948D048C2F0E949204CF91089580E034
:100940000E94960408950E94511A0E9496040895E8
:100950000E94511A9091A201981721F08093A20150
:100960000E9496040895ABE0B0E0E9EBF4E00C944B
:1009700052244F83588769877A878B8761110E9439
:10098000B20C1E821D8285E0FE013796DE011196B3
:1009900001900D928A95E1F78C819D81892B61F4FC
:1009A00049815A816B817C818D819E810E94DB0B04
:1009B0002B96E2E00C946E2489819A8189238F3FE3
:1009C00079F3CE0101960E940D038111E9CFF0CF9A
:1009D000FC01808191810E94A1090895CF93C82FC5
:1009E0008823C9F08238C9F40E94511A81FD13C0CE
:1009F00089E30E946A0C0E94D30C2FEF81EE94E0F1
:100A0000215080409040E1F700C0000089E30E943F
:100A1000720C0E94D30CCF9108958338A1F40E94E8
:100A2000511A80FDF8CF83E50E946A0C0E94D30C16
:100A30002FEF81EE94E0215080409040E1F700C01C
:100A4000000083E5E4CF8438A1F40E94511A82FDAE
:100A5000E2CF87E40E946A0C0E94D30C2FEF81EE54
:100A600094E0215080409040E1F700C0000087E40E
:100A7000CECF8CEF8C0F813A90F46C2F80910001D7
:100A8000909101010E94C61A882329F08C2F0E94A0
:100A9000720C0E94D30C8C2F0E946A0CBACF80E299
:100AA0008C0F883048F4C77081E001C0880FCA9568
:100AB000EAF70E94950CADCFEBE5EC0FE33040F484
:100AC000F0E0EB5BFE4F808190E00E94861AA3CF9E
:100AD000E8E5EC0FE73150F4F0E0EE0FFF1FE95EC0
:100AE000FE4F808191810E949C1A95CFC03F08F4EF
:100AF00092CF8C2F0E9441130E9414148CCF882314
:100B000009F455C0823879F40E94511A81FF4FC010
:100B100089E30E946A0C0E94D30C89E30E94720C44
:100B20000E94D30C0895833859F40E94511A80FF13
:100B30003EC083E50E946A0C0E94D30C83E5EECF91
:100B4000843859F40E94511A82FF31C087E40E9410
:100B50006A0C0E94D30C87E4E1CF9CEF980F913A86
:100B6000E8F290E2980F983050F4877091E001C05D
:100B7000990F8A95EAF7892F0E949B0CD1CF9BE5AC
:100B8000980F933028F490E080E00E94861A089530
:100B900098E5980F973128F490E080E00E949C1A25
:100BA0000895803F20F00E949B130E941414089522
:100BB0001F93CF93DF93182FEB010E94EE04209731
:100BC00039F4812F0E947F05DF91CF911F91089505
:100BD0008FE99FE00197F1F700C000002197EFCF68
:100BE00070E060E0893311F460E570E00E94D805A0
:100BF0000895882321F00E94950C0E94D30C08953B
:100C0000882321F00E949B0C0E94D30C0895B0E031
:100C1000A0E0EDE0F6E00C944B246C01D62FC72F3A
:100C2000FC011281F580F2949FE0F9220E948B0C66
:100C3000E82E8823B9F0E12E1123A1F08C2F807FBC
:100C4000803421F080E28D0F8830D0F08091A502B1
:100C500082FF16C082E00E94360D0E948B0C91E04C
:100C6000E82EE926BC2EB2948FE0B822FBE0FB15FB
:100C700008F468C0EB2DF0E0E252FB4D0C943524F3
:100C8000E12CF0CF0C2F0F70C07F11F00295007F88
:100C9000112399F0002359F080E28D0F883010F075
:100CA000D11107C0802F0E94950C0E94D30C8D2F6C
:100CB00041C0802F0E94A50CF8CF8D2F0E947F0588
:100CC000002309F43FC080E28D0F883010F0D1116D
:100CD00004C0802F0E949B0C03C0802F0E94AB0C8D
:100CE0000E94D30C2FC00C2F0F70C07FC03211F0A8
:100CF0000295007FDD2381F0D13009F463C0112318
:100D000009F46DC0FF2009F463C0F601858180FFFE
:100D1000CECF8F7085835CC08091A50282FD33C0E9
:100D2000112359F0002329F0802F0E94950C0E9476
:100D3000D30C80E00E94EE0405C080E00E947F0595
:100D40000111C7CFEB2DE850FF0B349720F40E9420
:100D5000511A0E949604EE2089F00E94870C80FDB3
:100D60000DC0F60112820E94810C0E94C408C601C7
:100D70000E940D080E94810C0E94D008CDB7DEB7FA
:100D8000E9E00C946724112389F0F11006C00E9459
:100D9000B50C802B0E94F905D5CF21E0F212F7CFD8
:100DA0000E94B50C802B0E94BC0CCCCFF11006C069
:100DB0000E94C90C802F0E940006C4CF31E0F316B8
:100DC00009F2F6CF112331F085E08F1508F4BACF80
:100DD000802FE0CF94E09F1508F4B4CFEBCFFF2035
:100DE00049F3D93349F4FFEF27EE33E0F1502040C7
:100DF0003040E1F700C000008D2F0E947F05A2CF98
:100E00008C2F86958695837069F0813009F09ACF92
:100E10008D2F9C2F9370111102C090E080E00E94F2
:100E20009C1A90CF8D2F9C2F9370111102C090E0CF
:100E300080E00E94861A86CF8D2F112329F00E9410
:100E400041130E9414147ECF0E949B13FACF8C2F63
:100E5000837079F5111176CF4D2F429546954770E5
:100E6000440F440F8D2F8F70042E01C0880F0A94F9
:100E7000EAF72D2F2071D4FF07C02FE030E001C02A
:100E8000220F4A95EAF72095C695C695C370822B26
:100E9000C23049F058F4C13019F00E949E0852CF78
:100EA0000E9498084FCF0E94A4084CCF0E9495083A
:100EB00049CF8695112311F08C2F8170882309F476
:100EC00041CF4D2F429546954770440F440F8D2FCB
:100ED0008F70042E01C0880F0A94EAF72D2F20711D
:100EE000D4FF07C02FE030E001C0220F4A95EAF797
:100EF0002095C695C695C370822BC23049F058F430
:100F0000C13019F00E94EF081DCF0E94E9081ACFE6
:100F10000E94F50817CF0E94B00814CFCF7011239C
:100F200029F08C2F0E94C4088D2F34CF8D2F0E9462
:100F300000068C2F0E94D00805CFD23F51F160F4FB
:100F4000D03FB9F0D13F81F0112309F449C0F1102D
:100F5000AECE8C2F8F7121C0D33F11F1D43FA1F7BA
:100F60008091A50282FD26C08C2F8F71112311F371
:100F700014C0112349F084E08F1508F4E3CE8C2FC0
:100F80008F710E94DD08DECE95E09F1508F4DACE61
:100F9000F6CF8C2F8F711111CDCF0E94C408D2CE05
:100FA000112329F08C2F8F710E94BB08CBCE0E9499
:100FB000B708C8CE112349F0CF718C2F0E94C40806
:100FC00063E08C2F0E94180DBDCE81E00E94360D8B
:100FD000E1E0EF1508F0B6CE82E00E94360DB2CE09
:100FE000F110FFCE8C2F8F71A5CF0F931F93CF934E
:100FF000DF93EC01688179818A810E94AC098C01C0
:101000000E94FB080E949408B801CE010E940706C6
:10101000DF91CF911F910F910895CF93DF93EC0152
:101020008B819C81892B29F08881998189238F3F2D
:1010300051F4DF91CF910895CE010E94F507CE01C2
:101040000E940F03F6CFCE010E9461038111F4CFFD
:101050000E948B0C882369F38A81882351F3809145
:10106000A50282FFE6CF82E00E94360DE2CF90E03B
:1010700080E00E94861A90E080E00E949C1A0E9404
:10108000B20C0E94D30C0E9430140E9414140895D4
:101090000E947A0C0E94370808950E94A20C0E94B8
:1010A0004808089592959F70963091F058F4925F99
:1010B0009F70923058F4803F19F030F4883E30F43D
:1010C00081E008959A5FF4CF843FD1F380E00895E2
:1010D000883EB0F3813FD1F7F3CFFC01808191814D
:1010E0000E94A1090E9452080895A5E0B0E0EBE734
:1010F000F8E00C9452242596E2E00C946E24A6E0CD
:10110000B0E0E5E8F8E00C9452242696E2E00C9476
:101110006E2408950E94890808950E948A08809389
:10112000C9010E943708089508950E948D08089506
:101130009091C901892B0E948D0808959091C90151
:1011400089230E948D0808959091C90189270E94E2
:101150008D0808950E94890808950E94AA0808959C
:101160000E94AD088093C8010E943708089580E06E
:101170000E94B008089591E001C0990F8A95EAF79E
:10118000892F0E94B008089521E030E001C0220FAD
:101190008A95EAF78091C801822B0E94B0080895D1
:1011A00021E030E001C0220F8A95EAF72095809176
:1011B000C80182230E94B008089521E030E001C0F8
:1011C000220F8A95EAF78091C80182270E94B00811
:1011D00008959091C801892B0E94B00808959091BC
:1011E000C80189230E94B00808959091C8018927F9
:1011F0000E94B00808950895262F277091E001C03D
:10120000990F2A95EAF723E0769567952A95E1F7F5
:10121000FB01EE0FFF1FE60FF71FE40FF51F50E075
:1012200040E0682F70E08191DF0111979B01042E4F
:1012300002C0369527950A94E2F721702195282758
:10124000292328272C934F5F5F4F4330510559F7CF
:101250000895A82FA77023E0969587952A95E1F722
:10126000FC01EE0FFF1FE80FF91FE60FF71F50E01C
:1012700040E080E0219130E00A2E02C036952795AB
:101280000A94E2F721703327042E01C0220F0A943A
:10129000EAF7822B4F5F5F4F4330510559F70895AE
:1012A000262F953070F4823160F4682F70E082E16F
:1012B000989F600D711D112444EA51E0822F0E9415
:1012C000FC080895292F953068F4823158F490E095
:1012D00064EA71E032E1239F800D911D11240E9488
:1012E0002909089580E00895CF92DF92FF920F932D
:1012F0001F93CF93DF936C010091C8018091C901C6
:10130000082BC7E0D0E010E0FC2EC8010C2E02C074
:10131000959587950A94E2F780FD0CC02197A0F778
:10132000F12C8F2DDF91CF911F910F91FF90DF90C6
:10133000CF900895B6018C2F0E940C10019771F385
:10134000F0CFCF93DF93EC010E947409BE010E949D
:101350000C10DF91CF9108951F93CF93DF93EB0192
:101360009091A301992339F0CB010E94A109DF914B
:10137000CF911F910895882369F0CB010E947409D1
:10138000182F682FCE010E945009BE01812F0E94A4
:101390000C10EDCFCB010E946209182FF6CF1F93DE
:1013A000CF93DF93C091CA0116E08091CB018C13DB
:1013B00004C0DF91CF911F910895D0E01C9FF001F0
:1013C0001D9FF00D1124E453FE4F40815181628135
:1013D0007381848195810E947F082196C770E5CF33
:1013E0004091FC015091FD016091FE017091FF015F
:1013F00080910002909101020E947F0808951F933E
:10140000CF93DF9380910102807F09F049C08091E2
:10141000FE01882309F444C08091CA01C091CB0128
:101420006091FC017091FD01A091FF01B09100025B
:10143000D62FD72316E0C81799F190E0109711F036
:10144000DF3F19F401968770F6CF189F9001199F1E
:10145000300D1124F901E453FE4F41814713F2CFBF
:1014600040814613EFCF42814111ECCF438154813B
:101470004A1B5B0B483C510528F7809101028F7095
:10148000806180930102F901EF52FE4F80818F70DD
:10149000806180838CEF91E00E940D080E94CF094B
:1014A000DF91CF911F910895A1E1B0E0EAE5FAE064
:1014B0000C944A248C0185E0F801DE011D96019010
:1014C0000D928A95E1F7F801E2808CEFC82E81E059
:1014D000D82E6091FF01709100026115710509F429
:1014E0004EC19091FC012091FD01892F82238F3FF5
:1014F00009F445C140815181A380B480F090FE0180
:10150000F501E61BF70BFF2009F4EAC08091010208
:10151000382F307FE83CF10508F0A3C031116DC0D1
:10152000FE2C251316C0941314C0E11012C08F7046
:101530008061809301020E94F009C6010E940D089B
:1015400080910102F80185838F2D6196EAE00C9469
:101550006624A114B10429F0842F85238F3F09F05C
:1015600027C180E0F82FF170DF2E80FF3CC0809112
:10157000CA012091CB0136E0821315C04D875E87EA
:101580008D859E850E94A109292F22952F702230DA
:10159000F0F0243018F59F70F1F0F8019581907FFC
:1015A000D1F4D12C1EC090E0389FF001399FF00D8E
:1015B0001124E453FE4F6181651306C060816413FA
:1015C00003C06281E6120FC001968770D5CF9F706D
:1015D00011F0882331F3805E883018F3C8010E942F
:1015E0000D08FD2CB1CFEE2009F4AECF80910102A1
:1015F000816080930102F12CA7CF251306C09413BC
:1016000004C0F801EE2009F487C0C8010E946D08EB
:10161000882319F1EE2009F180910102803270F0E7
:101620002091FC013091FD0138872F831986BB86FC
:10163000AA868C87CE0107960E940D0886E0F801E5
:10164000ACEFB1E001900D928A95E1F70E94FF099D
:101650000E94F009FF24F39477CFC8010E940D087F
:10166000F9CF311113C07A2DB98AA88A6E2D8989D4
:101670000E9475088CEF91E00E940D0886E0F6014B
:1016800011928A95E9F70E94F009B5CF25130FC092
:1016900094130DC0E1100BC0F8018583C8010E94AE
:1016A0000D0886E0F60111928A95E9F74DCFC80141
:1016B0000E946D08882389F2EE2079F28091010260
:1016C000803208F4BBCF2091FC013091FD013A83B8
:1016D00029831B82BD82AC828E83CE010196ACCF62
:1016E000E83CF10508F03EC0FE2CEE2009F4B5CF31
:1016F00025132AC0941328C08091010280FD1BC0CD
:10170000982F907FC1F0F8018583903F31F0982F9A
:10171000907F905F8F70892B8583C8010E940D0890
:1017200086E0F801ACEFB1E001900D928A95E1F707
:101730000E94F00909CF86E0F801ACEFB1E001901A
:101740000D928A95E1F700CFC8010E946D088111C2
:1017500075CF80910102816080930102C8010E94CF
:101760000D08F2CE7A2DB98AA88A6E2D89890E9439
:10177000750886E0F60111928A95E9F7D9CFEE2037
:1017800009F46BCFC8010E946D08F82E882309F474
:1017900064CF86E0F801ACEFB1E001900D928A953C
:1017A000E1F78CEF91E00E94E8040E94FF09C0CFAE
:1017B00081E08E25D7CEACE0B0E0E1EEFBE00C940A
:1017C00051244F83588769877A878B879C87CE01FE
:1017D00007960E94540A882369F08A859B85892B85
:1017E00039F04F815885842F85238F3F09F06BC0D6
:1017F00016E05FC086E0FE013796DE01119601908B
:101800000D928A95E1F78A859B85892B89F38F81D3
:10181000988589238F3F61F32091CB0130E0C90186
:101820000196877099274091CA014817190671F4EB
:101830000E944D081092CB011092CA0186E0ECEF95
:10184000F1E0DF011D928A95E9F7D2CF96E0929FF1
:10185000D001939FB00D1124A453BE4FFE013196C9
:1018600001900D929A95E1F78093CB010E94CF09E8
:10187000BFCF819FC001112484539E4F0E94540A00
:101880008823E9F0E091CA011E9FF0011124E4537E
:10189000FE4F4081518162817381848195810E94D4
:1018A0007F088091CA0190E0019687709927809304
:1018B000CA018091CA019091CB018913DACF2C968D
:1018C000E3E00C946D2469857A858B859C850E9464
:1018D0007F088ECF682F80910001909101010E94B6
:1018E000461B0895682F80910001909101010E948C
:1018F000541B089580910001909101010E94621B88
:101900000895809122028595859585950895809109
:1019100022028770089590912202977081E009F465
:1019200080E0089580914502089590914502892BA9
:101930008093450208958095909145029823909355
:101940004502089510924502089590914402892B12
:101950008093440208958095909144029823909337
:10196000440208951092440208958091230208953C
:1019700008950E94B80C08959091A50292FF08C0A6
:1019800090912302981721F0809323020E94B90CB2
:10199000089580912302882329F01092230280E089
:1019A0000E94B90C0895CF93DF93E0910001F0916C
:1019B0000101809145028083E0910001F0910101D5
:1019C000808190914402892B8083909123029923F6
:1019D00081F0E0910001F09101018081892B8083E9
:1019E00080910001909101010E94B21A81110E9420
:1019F000C90CC0910001D091010140E250E062E0C9
:101A000072E0CE010E948D24892B59F080E2FE0104
:101A1000A2E0B2E001900D928A95E1F7CE010E941A
:101A20005E1ADF91CF91089508950E94140D0895D4
:101A30009091A50292FF11C098E0899F9001112416
:101A4000622B609322020E94C40880912202859535
:101A5000859585950E94150D08950E94C4080895E6
:101A60001092220280E00E94150D089590912202AA
:101A70008095892380932202282F277091F4282FA4
:101A8000082E000C330B9217130659F09091A50203
:101A900092FF07C08595859585950E94D0080E9484
:101AA000300D08959091A50292FB222720F9281766
:101AB00069F080FB92F99093A5028091A402909125
:101AC000A5020E94A40D82E00E94360D0895809127
:101AD000A50282FB882780F991E089270E94520D98
:101AE000089581E00E94520D089580E00E94520DF9
:101AF00008956FEF7FEF90E080E00E94C624089584
:101B000090E080E00E94A224883E9E4F19F40E943B
:101B10004E15089580E0089582E090E00E949A2496
:101B2000089583E090E00E949A240895CF9384E082
:101B300090E00E949A24C82F82E290E00E949A24AA
:101B4000982F8C2FCF910895CF93C92F682F84E0C1
:101B500090E00E94A8246C2F82E290E00E94A824CA
:101B6000CF910895AB01BC018FE090E00E94BA24B0
:101B70000895AB01BC0183E190E00E94BA2408956E
:101B800060E070E0CB010E94B90D089560E070E064
:101B9000CB010E94B20D0E94C00D089568EE7EEF49
:101BA00090E080E00E94C62460E082E090E00E9425
:101BB000A82460E083E090E00E94A8241092C9016C
:101BC00060E084E090E00E94A82464E082E290E07B
:101BD0000E94A82460E085E090E00E94A82460E0D4
:101BE00086E090E00E94A8246FEF87E090E00E94DA
:101BF000A82440E050E0BA0188E090E00E94BA24B6
:101C000060E08DE090E00E94A82440E050E0BA013E
:101C100088E190E00E94BA2460E087E190E00E94B1
:101C2000A82440E050E0BA018CE190E00E94BA2480
:101C300070E060E080E290E00E94C62440E050E066
:101C4000BA0188E190E00E94BA2480E00E94671502
:101C50000E9496150E94C60D08950E94CE0D08950B
:101C6000682F8EE090E00E94A82408950E94321C04
:101C700060935E0270935F028093600290936102B2
:101C800060935A0270935B0280935C0290935D02B2
:101C90000895089508950E944A0E089508950E9497
:101CA0004E0E08958BEE90E10E94471A0E94490E55
:101CB0000E944B0E089581E008950E945B0E0895E6
:101CC000089508950E94600E0E94610E08950E947A
:101CD0000A110E94950408950E941D1C0E94A615D9
:101CE0000E9401120E94670E0E944F0E0895AAE002
:101CF000B0E0EDE7FEE00C9443240E941712882E1A
:101D000081110E94360E56E4A52E52E0B52E10E049
:101D100000E0302E802F0E942D112B013C01F50197
:101D2000C190D190E190F1905F01C414D504E60414
:101D3000F70409F45BC08091620281FD0E943811B2
:101D4000D701C60184259525A625B725912CC12C40
:101D5000D12C7601C394AC01BD014C215D216E21D3
:101D60007F21452B462B472BC9F10E945D0E88230E
:101D7000D1F09E823F824C205D206E207F2081E04A
:101D8000411451046104710409F480E088870E94C1
:101D9000261C8160782F9A8789874E815F816885AC
:101DA0008A850E94B304000F111F000F111FF80154
:101DB000EA5BFD4F80819181A281B3818C259D25B5
:101DC000AE25BF2580839183A283B38381E08110F8
:101DD00001C080E02A96E1E10C945F249394CC0C3E
:101DE000DD1CEE1CFF1CF2E19F12B5CF0F5F1F4FF1
:101DF0000530110509F08DCF8FEF89838A831B820F
:101E00000E94261C8160782F9D838C8349815A8192
:101E10006B818D810E94B304D9CF0E94770E0E94FE
:101E200052140E94A8040895CF93DF930E941110CA
:101E3000EC01811521E5920708F042C0811530E5DB
:101E4000930708F09DC0883E910530F5803E9105CE
:101E500008F092C0883A910588F4853A910508F017
:101E600084C08130910509F487C0009709F484C0CB
:101E7000049708F081C0D0E0C0E07EC08F3B9105A0
:101E8000D0F7C85AD0E0CC0FDD1FC85BDE4F0990F9
:101E9000D881C02DD46470C08115904250F4C11512
:101EA00081E0D80708F068C0C03FD10520F3D065B5
:101EB00063C0C11590E4D907F0F2DF70D06A5CC04E
:101EC000811525E5920700F5811534E5930708F0A3
:101ED0008BC0811543E5940708F073C0C11582E5F6
:101EE000D80708F469C0CE018370992721E030E05B
:101EF00002C0220F331F8A95E2F7C695C69580E28D
:101F0000C89FE001112454C0C11599E5D907A8F470
:101F1000C11528E5D20708F06CC0C11536E5D30716
:101F200008F0A9CF8C2F0E94A810C82FD0E0DC2F7A
:101F3000CC27CC27DF71D0621FC0C1154AE5D4077A
:101F400008F45CC0CE0190568115904208F093CF02
:101F50008D2F8F710E94A81090E0982F88278827D6
:101F60009F719C012C2BE901E6CFC55AD0E0CA58DD
:101F7000DE4FC881D0E0D064CE01DF91CF910895CB
:101F8000E4E096958795EA95E1F783702C2F2695E6
:101F90002695237040E2249F90011124382B8C2F2A
:101FA0008370C1E0D0E002C0CC0FDD1F8A95E2F75C
:101FB000C22BD32BDC68E0CFDC2FCC27C16FD06ADB
:101FC000DBCF8370992721E030E002C0220F331F5E
:101FD0008A95E2F7C695C69590E2C99FE001112463
:101FE000C22BD32BDA68C8CFD82FCC27C46FD06AC6
:101FF000C3CFDC2FCC27C06FD06ABECF8C2F8F70A1
:102000000E94A81034E0D695C7953A95E1F7CF70B5
:102010009C2FEC01D069B0CF0E94B0180E94140F21
:10202000089582389105B1F1B0F48133910509F436
:1020300075C048F48932910509F469C08A32910566
:1020400009F473C008958533910509F459C08933A3
:10205000910501F10895833E9105A9F138F4803E80
:102060009105F9F0823E910549F10895863E91056A
:10207000A9F1873E9105C9F1843E910519F520919A
:10208000A50221FF1FC08091A40284FD14C087EE29
:1020900090E008952091A4022370A1F080EE90E0DA
:1020A00008952091A40220FD47C03091A50230FF81
:1020B00009C024FF44C090E080E004C02091A40245
:1020C00022FDF7CF08952091A40222FD3BC030915C
:1020D000A50230FDE3CF24FFF5CFEDCF2091A40280
:1020E00023FFF0CF24FDE7CFD2CF2091A40223FD20
:1020F0002CC03091A50231FFEECF84EE90E0089520
:102100002091A40225FFDECF89E290E0089520917E
:10211000A40225FFD7CF85E390E008952091A40283
:1021200026FFD0CF8AE290E008952091A40226FFF6
:10213000C9CF81E390E0089589E390E0089583EEAC
:1021400090E0089582EE90E0089586EE90E0089584
:102150009091A40292FF06C0282F28712830F9F42C
:10216000877F846093FF06C0282F28712831F1F4FF
:10217000877E84612091A50220FF06C0382F387128
:102180003830D9F4877F816021FF06C0282F28715D
:102190002831D1F4877E816194FD877E0895282FB0
:1021A00024712430F9F68B7F8860DCCF282F2471CE
:1021B000243101F78B7E8861DDCF382F31713130CA
:1021C00019F78E7F8860E0CF282F2171213121F708
:1021D0008E7E8861E1CF80E008950E94790D089598
:1021E0000E9417122FEF86E791E021508040904027
:1021F000E1F700C000000E94171280E00E942D113C
:1022000060FF04C00E94ED100E94711C08950E949E
:10221000F01008950E94800D811102C00E942D0EC1
:102220000E948C0D809362020E94960D9093A502ED
:102230008093A4020E9407110E94910D0E949508AC
:102240008091C8010E94AD08089508950E9425114B
:10225000089508950E942911089594E0899FF0013E
:102260001124E654FD4F608171818281938108952C
:10227000089580EA8A95F1F7089500C008950E94B4
:1022800039110895F894E82FE295EF70F0E031A14C
:10229000282F2F7081E090E001C0880F2A95EAF77F
:1022A000982F9095932391A392A1892B82A3789440
:1022B0000895CF93DF93C9E7D1E089918F3F11F063
:1022C0000E94421181E0CB38D807B9F7CBE8D1E0C2
:1022D00089918F3F11F00E94421181E0C039D807E7
:1022E000B9F7DF91CF9108954F925F927F928F92CD
:1022F0009F92AF92BF92CF92DF92EF92FF920F9395
:102300001F93CF93DF93B82E092F162F69017A01FF
:10231000C62FD0E0CE0187589E4F2C01DC012C91B6
:102320002F3F09F455C0F894E22FE295EF70F0E0EA
:1023300031A12F7081E090E001C0880F2A95EAF763
:10234000932F982B91A392A18095892382A37894AF
:102350000E943D114BE851E0EB2DF02F60E971E058
:1023600000E04601570180949094A094B094EA0153
:102370007990AE0180819181A281B381DFEF7D16DA
:10238000B9F1272D22952F7030E0E90128A130E026
:10239000D72DDF7002C035952795DA95E2F720FD3D
:1023A00027C08C299D29AE29BF2980839183A283D0
:1023B000B38301E0349664177507C9F6F201808192
:1023C0008F3F11F00E944211602F812F0E943F1118
:1023D000DF91CF911F910F91FF90EF90DF90CF9001
:1023E000BF90AF909F908F907F905F904F90089597
:1023F00088219921AA21BB2180839183A283B38361
:10240000D9CF0E94591184E1EAEBF2E0DF01982F65
:102410001D929A95E9F7E6EAF2E0DF011D928A95AE
:10242000E9F785E00E9474120E94420308958F929A
:102430009F92AF92BF92FF920F931F93CF93DF9320
:10244000CDB7DEB764970FB6F894DEBF0FBECDBF31
:102450008E010F5F1F4F84E1F80111928A95E9F711
:10246000F12C812C912C54018394A50194016F2DA2
:10247000C8010E947411F394880C991CAA1CBB1CFF
:10248000F2E1FF12F2CF44E150E0B80186EA92E0B7
:102490000E948D24FF24F394009709F4F12C892BDA
:1024A00041F084E1F801A6EAB2E001900D928A952C
:1024B000E1F72F2D45E06AEB72E086EA92E00E9498
:1024C00075120E9445038F2D64960FB6F894DEBFF7
:1024D0000FBECDBFDF91CF911F910F91FF90BF90A5
:1024E000AF909F908F9008950895FF920F931F9340
:1024F000CF93DF93F82ED92F8B01C42F222349F0DD
:1025000081E0809365020E94261C90936402809370
:10251000630280916502882399F080916302909113
:1025200064020E943E1C059758F0EF2DFD2FD80144
:1025300090E080E0D0E08C179D073CF0109265029F
:10254000CDB7DEB7E5E00C946B2401911191219198
:1025500031910D931D932D933D930196ECCF0E94E5
:10256000801E0E946C0E0E948D1E08950E94921E75
:102570000E940D0F0E94AC1E08950E94BF1B0E9476
:10258000661E0E94520E0E94AF120E94B6120E9456
:10259000620EFBCF80916C0280FF0DC0609107013D
:1025A00070E0660F771F6038710570F56115710571
:1025B00069F1862F089581FF07C06091070184E0CB
:1025C000689FB0011124EFCF6091070182FD0AC01E
:1025D00080916B028823A9F0209106016091070188
:1025E000821710F088E0ECCF869FC001112433E001
:1025F000880F991F3A95E1F7622F70E00E9421241D
:10260000D2CF68E070E0D5CF8FE7089581E00895DC
:1026100080916C0280FF0CC06091030170E07595A1
:102620006795759567956115710549F1862F089530
:1026300081FF06C06091030170E075956795F3CF47
:102640006091030182FD0BC090916A029923A1F071
:102650006091020180910301961738F0682F70E0B5
:102660006038710500F38FE70895899FC001112438
:1026700070E00E942124F4CF61E070E0D7CF81E0C8
:102680000895803F31F40E94CA12819580937002B0
:102690000895813F19F40E94CA12F8CF823F31F4A5
:1026A0000E94CA12819580936F020895833F19F4A6
:1026B0000E94CA12F8CF893F29F40E940813809320
:1026C000710208958A3F21F40E9408138195F7CF83
:1026D0008B3F31F40E940813819580937202089514
:1026E0008C3F19F40E940813F8CF9CE0980F9530A6
:1026F00070F4845F990B21E030E001C0220F8A95CD
:10270000EAF780916E02822B80936E0208958D3FCE
:1027100031F480916C02816080936C0208958E3F49
:1027200021F480916C028260F7CF8F3FB9F78091DE
:102730006C028460F1CF40916F02803F59F4809128
:10274000700287FF0DC01092700241110BC01092F1
:102750006B0208C0813F81F48091700218169CF3CF
:10276000442381F08091710290917202892B09F0CB
:102770005AC010926A020895823F49F447FFF0CF91
:1027800010926F02809170028111ECCFE0CF833FF5
:1027900019F41416ACF3E4CF90917102893F29F437
:1027A0001916F4F610927102DBCF8A3F19F497FFE5
:1027B000D7CFF8CF909172028B3F29F497FFD0CFFB
:1027C00010927202CDCF8C3F19F41916CCF3C8CFFA
:1027D0009CE0980F953090F4845F990B21E030E0F5
:1027E000B90102C0660F771F8A95E2F7CB01809589
:1027F00090916E02892380936E02B2CF8D3F31F4A7
:1028000080916C028E7F80936C02AACF8E3F21F460
:1028100080916C028D7FF7CF8F3F09F0A1CF80911F
:102820006C028B7FF0CF08950E94261C9C01909132
:102830006F0280917002982B21F0309369022093EF
:1028400068029091710280917202982B21F030936E
:102850006702209366028DE692E00E94781A08953E
:1028600086E0EDE6F2E0DF011D928A95E9F710922D
:102870006B0210926A0210926C020895FC01828130
:1028800081110EC0838181110BC08481811108C028
:1028900091E08581811101C090E0892F81700895B8
:1028A00081E0FCCFA6E0B0E0E8E5F4E10C9451242F
:1028B00086E0EDE6F2E0DE01119601900D928A9538
:1028C000E1F710926F021092700210927102109252
:1028D00072028B819C81892B89F080916802909192
:1028E00069020E943E1CAC0190916B029923C9F1D0
:1028F000809108018417150608F440C08D819E81DF
:10290000892B91F080916602909167020E943E1C93
:10291000AC0190916A02992309F471C0809104017D
:102920008417150608F479C0BE016F5F7F4F8DE6EE
:1029300092E00E94741B811105C08DE692E00E9416
:102940003E1481110E94141486E0FE013196ADE61A
:10295000B2E001900D928A95E1F72696E3E00C949F
:102960006D24209109018AE0289F900111242417E9
:10297000350720F69F5F90936B0202C09F3FD1F70F
:102980001B81112359F00E94CA129FEF11160CF4FB
:1029900091E0899F802D112480936F021C81112367
:1029A00059F00E94CA129FEF11160CF491E0899F12
:1029B000802D11248093700230916F02332309F42B
:1029C0009DCF20917002222309F498CF45EB340368
:1029D000C0011124992359F090936F0245EB240311
:1029E00090011124332339F03093700287CF81E0B6
:1029F00080936F02F3CF81E0809370027FCF2091AC
:102A000005018AE0289F900111242417350708F05A
:102A10008BCF9F5F90936A0202C09F3FD1F71D81C9
:102A2000112359F00E9408139FEF11160CF491E046
:102A3000899F802D1124809371021E81112359F0EA
:102A40000E9408139FEF11160CF491E0899F802DCE
:102A500011248093720230917102332309F464CF00
:102A600020917202222309F45FCF45EB3403C001A9
:102A70001124992359F09093710245EB240390019E
:102A80001124332339F0309372024ECF81E08093CA
:102A90007102F3CF81E08093720246CF83E290E02F
:102AA0000E949A24823289F484E290E00E949A245F
:102AB000893059F485E290E00E949A2491E08231B5
:102AC00009F090E0892F8170089580E0FCCFCF93CA
:102AD000C82F6FEF811162E283E290E00E94A82488
:102AE0006FEFC11169E084E290E00E94A8246FEFCB
:102AF000C11162E185E290E00E94A824CF9108957F
:102B0000089586E290E00E949A24682F70E090E099
:102B100080E008950895CF93C62F0E948A156C2FE8
:102B200086E290E00E94A824CF91089580E00E9460
:102B3000671560E070E0CB010E948B150E94301891
:102B40000E940D1981E00E94671508950E9480156A
:102B50000E9481150E948A150E944E15811102C0A3
:102B60000E9496150895CF93FB01C281CC2309F1F1
:102B70009C0122513F452031310520F582510E94B0
:102B80001D19C0E08C2FCF91089581E00E94C408E8
:102B900043E062E081E00E943803F3CF81E00E94CD
:102BA000D00843E062E081E00E943803EBCF82E08E
:102BB000F6CF8031FFE59F0789F381319F45B9F357
:102BC000C1E0E0CF8031EFE59E07F9F281319F450A
:102BD000C9F682E0DBCF2FEFFC0120830895EF924E
:102BE000FF920F931F93CF93DF93EC01E62EE881C2
:102BF000E150E33108F05EC0F0E0E651FB4D0C948B
:102C00003524198289E08A836E2DCE010E94391DF8
:102C1000CDB7DEB7E6E00C946A248981823069F092
:102C2000833071F08130E1F40E94321C0E943B2419
:102C30006A837B838C839D83E7CF0E948115F6CFC7
:102C40008E01F12C8F2D0E942D11F8018283738348
:102C50006483F3940D5F1F4FF5E0FF12F3CFD4CFE1
:102C60006E2DCE010E94EB15CFCF89818230C1F746
:102C70006A817B818C819D810E943B240E948B15FF
:102C8000C3CF4B816A8189810E94F21798278927D7
:102C900098279D838C83B8CF2C813D8132272327B1
:102CA00032274B816A8189810E941418ADCF0E941E
:102CB0003018AACF8FEF8883A7CF0E94BE188983D0
:102CC000A3CF0E94C0189827892798279A838983C1
:102CD0009BCF6B8170E089819A81AE014C5F5F4F21
:102CE0009827892798270E94C3188ECF6B8170E0A0
:102CF00089819A81AE014C5F5F4F98278927982779
:102D00000E94E81881CF0E940D197ECF0E94E01723
:102D1000D6CF6B8170E089819A81AE014C5F5F4FA5
:102D20009827892798270E9468186ECF6B8170E0DA
:102D300089819A81AE014C5F5F4F98278927982738
:102D40000E948C1861CFCF93DF93EC01FB0182814D
:102D5000882309F433C1C330FDE5DF07C0F5CA3F5E
:102D60009CE5D90730F49E0122503C4524313105C1
:102D7000B0F50E94960D9093A5028093A402C131F4
:102D80008CE5D80709F4EEC008F069C0C930ECE55D
:102D9000DE0709F4D5C0C8F5C5308CE5D80709F4BD
:102DA000C7C000F5C330ECE5DE0709F4B9C008F090
:102DB000BBC0C230DC4509F4ADC08091A402909143
:102DC000A5020E94A40D0E944D0880E008C0C136F3
:102DD000EDE5DE0771F2C53AFDE5DF0751F2DF915F
:102DE000CF9108958091A4028062C7309CE5D907F5
:102DF00009F493C08091A4028061C830DC4508F4D6
:102E00008CC08091A402806488C08091A4028B7FD2
:102E1000CD30FCE5DF0709F480C098F48091A4026E
:102E20008E7FCB309CE5D90709F477C08091A4024E
:102E30008C60CC30DC4508F470C08091A4028D7F9A
:102E40006CC08091A4028F7ECF30FCE5DF0709F4CF
:102E500064C008F47BC08091A4028F7D5EC0CD3F2A
:102E60009CE5D90709F47AC050F5C531FCE5DF07C8
:102E700009F486C098F48091A402837FC3319CE555
:102E8000D90709F44AC008F471C00E944D08909116
:102E9000A402892F97FB87F980583FC0CB3FFCE500
:102EA000DF0709F449C008F055C08091A502816090
:102EB000CA3FDC4509F081CF8093A5027ECFC130A7
:102EC000EDE5DE0709F468C0A8F4CF3F8CE5D8072C
:102ED00009F452C08091A5028360C115DD4560F3FD
:102EE0008091A502982F909591708E7F892B90FBF1
:102EF00081F9E2CFC136EDE5DE0709F451C0C53AEC
:102F0000FDE5DF0709F453C0C230DD4509F055CFB8
:102F100080E043C08091A40281608093A4024DCFE1
:102F20008091A4028260F9CF8091A4028460F5CFE1
:102F30008091A4028860F1CF8091A5028260BCCF0D
:102F40000E944D088091A4028068E7CF8091A4027E
:102F5000877FE3CF8091A5028E7FAECF8091A502BF
:102F60008D7FAACF8091A4028F7BD7CF0E944D087E
:102F70008091A4028F77D1CF8091A5028C7F9CCFC6
:102F80008091A40282FB992790F921E0922790FB7F
:102F900082F990FB83F9C1CF81E00E94300E0DCF02
:102FA0009091A402892F8F7E94FF8061B6CF90917B
:102FB000A402892F8E7F90FF8160AFCF81E00FCF79
:102FC00084E0089550E0440F551F94E2699F400D3E
:102FD000511D112494EB899F400D511D1124CA01EC
:102FE000879608950F931F93CF93DF938430C8F48F
:102FF0006530B8F44231A8F40E94E2178C010E94B7
:103000009A24C82FD0E0DC2FCC27C80101960E945B
:103010009A249E01282BC901DF91CF911F910F9116
:10302000089590E080E0F8CF0F931F93CF93DF9344
:10303000122F032F843078F4653068F4423158F44D
:103040000E94E217EC01602F0E94A824612FCE019C
:1030500001960E94A824DF91CF911F910F910895AE
:10306000AF92BF92CF92DF92EF92FF921F93CF93D6
:10307000DF938CEAC82E80E0D82ED0E07601C0E045
:1030800014C0F50125913491412F6C2F8D2F0E9492
:10309000141882E0A80EB11C1F5F123191F784E270
:1030A000E80EF11CCF5FC53019F0570110E0E9CFF1
:1030B000DF5F84EBC80ED11CD43001F7DF91CF91D4
:1030C0001F91FF90EF90DF90CF90BF90AF90089549
:1030D000EF92FF920F931F93CF93DF93EC018A013E
:1030E0007C01E60EF71ECE018796CE15DF0529F48A
:1030F000CDB7DEB7E6E00C946A24C03D22E0D207EB
:1031000040F40E949A24F80180830F5F1F4F21969C
:10311000EACFF8011082F9CFB0E0A0E0E2E9F8E1EF
:103120000C944C247C016A018C01060F171FEC01E2
:10313000CE018796C017D10729F4CDB7DEB7E8E0F6
:103140000C946824C03D22E0D20740F4FE01EE1941
:10315000FF09EC0DFD1D60810E94A8242196E8CF97
:10316000462F843040F4753030F4623120F4672FFC
:103170000E94F217089590E080E0089580E108959C
:1031800089E091E00895EF92FF920F931F93CF9300
:10319000DF93EC018A017C01E60EF71ECE01895017
:1031A0009D4FCE15DF0529F4CDB7DEB7E6E00C94D0
:1031B0006A24C93021E0D20740F40E949A24F80121
:1031C00080830F5F1F4F2196E9CFF8011082F9CF5E
:1031D000B0E0A0E0EEEEF8E10C944C247C016A0132
:1031E0008C01060F171FEC01CE0189509D4FC017AF
:1031F000D10729F4CDB7DEB7E8E00C946824C930D4
:1032000021E0D20740F4FE01EE19FF09EC0DFD1D8F
:1032100060810E94A8242196E7CFCF93DF93C7EF68
:10322000D2E060E0CE010E94A8242196C11584E07E
:10323000D807B9F7DF91CF910895A4E0B0E0E3E2B9
:10324000F9E10C944D24F82E8FE08F1548F18FEFA3
:1032500093E00E949A24811123C007EF12E0F1103D
:1032600023C019821A821B821C82DD24D394780128
:103270008FEFE81AF80AC8010E949A2489831A82FB
:10328000882371F09FEF980F9330D8F48A83D98206
:103290000E5F1F4FC7010E949A248B83811112C0B9
:1032A0002496E7E00C946924011584E01807C1F323
:1032B000C8010E949A24811101C0FA940F5F1F4F28
:1032C000CECF8701CE0101960E948804D0CFCF9344
:1032D000DF93EB0186319C4511F50E94920C9A8197
:1032E000992399F08A7A91E009F490E0909373021F
:1032F000811109C089E20E946A0C0E94D30C80E00F
:10330000DF91CF91089585E3F6CF8091730281110B
:1033100004C089E20E94720CF0CF85E3FBCF81E00C
:10332000EFCF0F931F93CF93DF93C42FD22FFC01C6
:1033300082818823C9F0409376020E94261C9093D4
:1033400075028093740280E28C0F883040F4C7705D
:1033500081E001C0880FCA95EAF70E94F905DF9164
:10336000CF911F910F91089510917602141332C0DE
:1033700080917402909175020E943E1C883C9105D8
:1033800048F5C0E2CD0F1D17B9F080E2810F8830FB
:1033900040F4177081E001C0880F1A95EAF70E9487
:1033A0000006C83048F481E09D2F977001C0880F57
:1033B0009A95EAF70E94F905802F0E94F005C8301F
:1033C00070F6D77081E001C0880FDA95EAF70E94A5
:1033D0000006C5CF80E28C0F883008F6C77081E008
:1033E00001C0880FCA95EAF7F2CF0F939C01CB0179
:1033F000233F4CE5340759F1A8F4283DFCE53F078D
:1034000001F1293D4CE53407D1F1273D3C4591F4CC
:1034100006E221EE41EE67ED7CE50E94911980E025
:103420000F910895253FFCE53F07E9F0B0F0263FF6
:103430003C45F9F0FC018281882339F11092760233
:10344000EFCF07E225EE45EE68ED7CE5E6CF06E23C
:1034500021EE40EE63EF7CE5E0CF07E225EE44EE9F
:1034600064EF7CE5DACF06E221EE42EE65EF7CE523
:10347000D4CF07E225EE46EE66EF7CE5CECF08E23C
:1034800021E045EE69ED7CE5C8CF81E0C9CF90939E
:10349000A1018093A001089590937C0280937B0208
:1034A0000895E0917B02F0917C02309729F0019021
:1034B000F081E02D0995089580E00895E0917B0268
:1034C000F0917C02309799F020911601222359F057
:1034D0002091A40227FF07C0DC012C9111962C93A8
:1034E000119726E02C930280F381E02D0995089531
:1034F000E0917B02F0917C02309739F022E0DC0110
:103500002C930480F581E02D09950895209179028E
:1035100030917A022817390771F090937A028093DC
:103520007902E0917B02F0917C02309721F00680D5
:10353000F781E02D09950895209177023091780266
:103540002817390771F09093780280937702E09101
:103550007B02F0917C02309721F00084F185E02D10
:1035600009950895FC01329680911601882321F077
:103570008091A4029EE187FF96E080E0915008F4DC
:10358000089521912223D1F38F5FF8CF662301F1B3
:10359000209116012223F1F02091A40227FF1AC0E6
:1035A000462F4695469546954E3190F4677021E03A
:1035B00030E002C0220F331F6A95E2F7840F911D9D
:1035C000FC01828190E02823392381E0232B69F4D8
:1035D00080E00895FC01329608962191261721F08B
:1035E000E817F907D1F7F4CF81E008959C01FC01B9
:1035F00032969FEF80E04191461751F09F3F19F4BA
:10360000411101C0982F8F5F8630A9F79F3F09F4C1
:103610000895290F311D97FD3A95F90162830895A8
:10362000FC01329608962191261303C0DF01119701
:103630001C92E817F907B9F70895E62FE695E69585
:10364000E695EE3168F4E80FF92FF11D677021E07F
:1036500030E001C0220F6A95EAF78281822B8283D3
:103660000895E62FE695E695E695EE3170F4E80FBD
:10367000F92FF11D677021E030E001C0220F6A953B
:10368000EAF720958281282322830895209116014C
:10369000222339F02091A40227FF03C00E941D1BA2
:1036A00008950E94F61A089520911601222339F0F8
:1036B0002091A40227FF03C00E94311B08950E949D
:1036C000101B0895FC01329680911601882351F059
:1036D0008091A40287FF06C08EE1DF011D928A95CA
:1036E000E9F7089586E0F9CF46E050E00E948D2486
:1036F00021E0892B09F420E0822F089508950E948B
:103700007E1B0895811106C081E080937D020E9496
:103710007F1B089582E0F9CF83E080937D020E94B1
:103720007F1B08950E94821B089581E080937D0293
:103730000E947F1B08950E94951B08950895089587
:103740000E949F1B0895089508950E949E1B08954E
:10375000CF930E94A31B0E9417120E94A41BC0E0DB
:103760008C2F0E942D11672B682B692B31F4CF5FB2
:10377000C530B1F780E0CF91089581E0FCCF85B7E7
:10378000806885BF85B7806885BF08951F921FB682
:103790001F9211248F939F93AF93BF9380917E02CA
:1037A000811113C08091CE029091CF02A091D002DE
:1037B000B091D1024196A11DB11D8093CE0290938C
:1037C000CF02A093D002B093D102BF91AF919F914D
:1037D0008F911F901FBE1F9018958091D602843044
:1037E00031F10E94BB0310927E0288E190E020E458
:1037F0000FB6F894A895809360000FBE20936000E8
:1038000083B7817F846083BF83B7816083BF7894EF
:10381000889583B78E7F83BF0FB6F894A895809163
:103820006000886180936000109260000FBE089570
:103830000E944D080E94C003089582E084BD93E079
:1038400095BD9AEF97BD80936E0008952FB7F894B9
:103850008091CE029091CF02A091D002B091D1027E
:103860002FBF08952FB7F8946091CE027091CF02C8
:103870008091D0029091D1022FBF08959C014FB743
:10388000F8948091CE029091CF02A091D002B09195
:10389000D1024FBF821B930B089578941F921FB6DD
:1038A0001F9211248F939F93AF93BF938091CE0269
:1038B0009091CF02A091D002B091D1020196A11DAA
:1038C000B11D8093CE029093CF02A093D002B0930B
:1038D000D102BF91AF919F918F911F901FBE1F90FA
:1038E000189581E08093E00080E28093D8001092E8
:1038F000C9008FE19EE40197F1F700C0000087E066
:1039000090EBDC018093DF029093E002A093E10250
:10391000B093E20288E19CE00FB6F894A8958093FA
:1039200060000FBE90936000FFCF88E19CE00FB66F
:10393000F894A895809360000FBE90936000FFCF2D
:103940008091A202089508959C0184E08093E9008B
:103950009FEF8091E800915085FD06C085ED8A9526
:10396000F1F700009111F5CF8091E80085FF0CC0C0
:1039700050E040E066E070E0C9010E944B1F80917A
:10398000E8008E778093E8000895CF93DF93EC01F1
:10399000809116018823B1F18091A40287FF32C083
:1039A00060E284E08093E9008FEF9091E80081501D
:1039B00095FD06C095ED9A95F1F700008111F5CFC0
:1039C0008091E80085FF1BC08091160170E050E0F7
:1039D00040E0811104C050E040E068E070E0CE01BA
:1039E0000E944B1F8091E8008E778093E80080E270
:1039F000FE01A2E8B2E001900D928A95E1F7DF9115
:103A0000CF91089568E081E0CDCF80937F027093DD
:103A10008102609380028091D6028430F9F4809311
:103A2000E9008FEF9091E800815095FD06C095ED7B
:103A30009A95F1F700008111F5CF8091E80085FF9C
:103A40000DC050E040E063E070E08FE792E00E943C
:103A50004B1F8091E8008E778093E8000895BC01A9
:103A600084E00E94051D0895BC0183E00E94051DAD
:103A70000895CF93FC01603221F58091D602843005
:103A800001F5C091E900CF702091EC00922F917068
:103A900020FD90E8C92B82E08093E9008091E80046
:103AA00080FF0CC050E040E060E270E0CF010E9477
:103AB0004B1F8091E8008E778093E800CF70C09311
:103AC000E900CF9108958091D502811109C00E942B
:103AD0002A210E9487218091E20084608093E20085
:103AE00008951092D50208950E94951B0895609143
:103AF000D20281E0611101C080E00E948C1B089518
:103B00009091D60281E0943009F080E06091D20279
:103B10000E94921B089542E061EC81E00E94A62081
:103B200042E261EC84E00E94A62042E261EC82E085
:103B30000E94A62042E260EC83E00E94A6209091C1
:103B4000D60281E0943009F080E06091D2020E94B8
:103B5000821B08958091D802833009F463C030F449
:103B60008130E1F1823009F4A0C008958A3009F46F
:103B70008CC08B3009F471C0893009F052C080913B
:103B8000D702813209F04DC08091DB029091DC02B6
:103B9000009719F0029709F044C08091E800877FF0
:103BA0008093E8008091E80082FF37C09091F30095
:103BB0008091F200029731F48091F100813011F090
:103BC000863021F48091F1008093A2028091E80078
:103BD0008B778093E8000E94DA2023C08091D7027F
:103BE000813AF9F48091E800877F8093E800809122
:103BF000DB029091DC02892B61F460E282E892E0C2
:103C000070E00E94E91F8091E8008B778093E800C4
:103C1000089560E090E080E0F3CF8091D6028111BA
:103C2000C1CF08958091D702813AD9F78091DB0204
:103C30009091DC02892BA9F78091E800877F80931F
:103C4000E8008091E80080FFFCCF8091160180930E
:103C5000F1008091E8008E77BCCF8091D70281324D
:103C600001F78091DB029091DC02892BD1F68091E3
:103C7000E800877F8093E8000E94DA208091D902D3
:103C8000809316010E944D0808958091D7028132D9
:103C900041F68091E800877F8093E8000E94DA2057
:103CA0008091DA028093A30208958091D702813A2D
:103CB00009F0B7CF8091E800877F8093E80080917A
:103CC000E80080FFFCCF8091A302C1CF84B7877F3B
:103CD00084BF0FB6F894A8958091600088618093A6
:103CE0006000109260000FBE80E890E00FB6F8947C
:103CF00080936100909361000FBE0E949B1B08950A
:103D00000E942A210E948721E2EEF0E080818460F7
:103D1000808378940E94062408958AE091E00E94AE
:103D20004C1A08958091D602853031F48091D602E4
:103D3000853019F00E94181C08950E94ED1B809197
:103D4000D402882399F30E94A81B882379F30E9448
:103D5000351F0E944D08EACFA0E2B0E0E2EBFEE1A1
:103D60000C9452248091D602843009F583E080932C
:103D7000E9008091E80082FF1AC08091E80090E09D
:103D800085FF09C050E040E060E270E0CE0101969E
:103D90000E949A1F91E08091E8008B778093E80061
:103DA000992329F060E2CE0101960E94EF15A096BA
:103DB000E2E00C946E240E94DE1E0895292F332722
:103DC0002330310521F168F42130310509F443C075
:103DD0002230310509F444C090E080E030E020E07A
:103DE00026C02132310551F122323105A9F7633065
:103DF000710590F7FB01EE0FFF1FED56FE4F20817E
:103E0000318160577E4FFB01808190E010C099277F
:103E10008130910581F0009729F00297E9F6E8E7F3
:103E2000F3E002C0EAE9F3E0849190E09F01FA0137
:103E3000318320830895ECE8F3E0F6CF6330710519
:103E400058F6660F771FFB01E756FE4F2081318140
:103E500089E090E0ECCF82E190E029EF33E0E7CF1A
:103E60008BE590E02EE933E0E2CF80E189BD82E18D
:103E700089BD09B400FEFDCF8091D8008F7D80936D
:103E8000D8008091E00082608093E0008091E000A3
:103E900081FDFCCF0895AF92BF92CF92DF92FF9247
:103EA0000F931F93CF93DF936C01EB018A010E9464
:103EB000F920F82E811123C00115110539F0F80100
:103EC00080819181C81BD90BC80ED91EB12CA12CA1
:103ED0002097A9F08091E80085FD22C08091E8003C
:103EE0008E778093E80001151105A1F0F80180811B
:103EF0009181A80EB91EB182A08285E0F82E8F2D87
:103F0000DF91CF911F910F91FF90DF90CF90BF90E5
:103F1000AF9008950E94F9208823D1F2F82EEFCFB8
:103F2000F60181916F018093F1002197FFEFAF1AA5
:103F3000BF0ACECFAF92BF92CF92DF92FF920F9384
:103F40001F93CF93DF936C01EB018A010E94F9204C
:103F5000F82E811123C00115110539F0F801808177
:103F60009181C81BD90BC80ED91EB12CA12C20974A
:103F7000A9F08091E80085FD22C08091E8008B7750
:103F80008093E80001151105A1F0F801808191816D
:103F9000A80EB91EB182A08285E0F82E8F2DDF9188
:103FA000CF911F910F91FF90DF90CF90BF90AF9076
:103FB00008950E94F9208823D1F2F82EEFCF809146
:103FC000F100F60181936F012197FFEFAF1ABF0A4D
:103FD000CECFFC018091DD029091DE02861797071B
:103FE000A0F06115710529F49091E8009E779093F7
:103FF000E80090E06115710551F4911108C08091BD
:10400000E80082FF34C080E00895BC01F2CF8091C7
:10401000D6028823C1F18530C1F18091E80083FD8B
:1040200030C08091E80082FDEACF8091E80080FFF7
:10403000E1CF8091F3002091F200382F61157105D6
:1040400019F02830310558F091E02830310509F099
:1040500090E02091E8002E772093E800CBCF81916B
:104060008093F100615071092F5F3F4FE7CF80913E
:10407000D602882341F0853041F08091E80083FF2B
:10408000BECF81E0089582E0089583E00895FC01A9
:104090008091DD029091DE0286179707A0F06115EE
:1040A000710529F48091E8008E778093E80090E014
:1040B0006115710551F4911108C08091E80082FFEB
:1040C00035C080E00895BC01F2CF8091D6028823EC
:1040D000C9F18530C9F18091E80083FD31C080913C
:1040E000E80082FDEACF8091E80080FFE1CF809177
:1040F000F3002091F200382F6115710519F0283076
:10410000310558F091E02830310509F090E08091B8
:10411000E8008E778093E800CBCF84918093F10004
:104120003196615071092F5F3F4FE6CF8091D602E3
:10413000882341F0853041F08091E80083FFBDCFB6
:1041400081E0089582E0089583E00895982F9730E4
:1041500028F08F708093E90081E008959093E90042
:10416000242F762F50E0981731F07091EC002091B9
:10417000ED005091F00021FD02C09F5FE8CF30912B
:10418000EB003E7F3093EB003091ED003D7F3093AC
:10419000ED003091EB0031603093EB007093EC0058
:1041A0002093ED005093F0002091EE0027FDE5CF25
:1041B00080E008958091D70287FF13C08091E800C6
:1041C00082FF06C08091E8008B778093E80004C0EE
:1041D0008091D6028111F2CF08958091D602882372
:1041E000D9F38091E80080FFF8CF8091E8008E77C6
:1041F000ECCF2091E4003091E50095E6A9012091F3
:10420000EC00822F817020FF06C08091E80080FFC3
:1042100006C080E008952091E80022FD1AC0809138
:10422000D602882389F0853089F08091EB0085FDE6
:104230000FC02091E4003091E50042175307F9F2D6
:104240009150E1F684E0089582E0089583E00895B6
:1042500081E008950E9499210E94A121E0EEF0E002
:10426000808181608083E8EDF0E080818F778083BA
:1042700019BCA7EDB0E08C918E7F8C9380818F7EEE
:1042800080831092D50208950F931F93CF93DF93ED
:104290000E9499210E94A121C8EDD0E088818F77EA
:1042A000888388818068888388818F7D888319BC12
:1042B0001092D6021092D2021092D4021092D3021F
:1042C00000EE10E0F80180818B7F8083888181601F
:1042D000888342E060E080E00E94A620E1EEF0E00A
:1042E00080818E7F8083E2EEF0E080818160808338
:1042F000808188608083F80180818E7F80838881BF
:1043000080618883DF91CF911F910F910895E8ED2F
:10431000F0E080818F7E8083E7EDF0E08081816036
:10432000808384E082BF81E08093D5020E94442193
:104330000895E8EDF0E080818E7F80831092E200A6
:1043400008951092DA001092E10008951F920F92E2
:104350000FB60F9211242F933F934F935F936F9358
:104360007F938F939F93AF93BF93EF93FF9380912E
:10437000E10082FF0BC08091E20082FF07C08091C4
:10438000E1008B7F8093E1000E9405248091DA0098
:1043900080FF19C08091D80080FF15C08091DA009D
:1043A0008E7F8093DA008091D90080FF96C080E1F3
:1043B00089BD82E189BD09B400FEFDCF81E0809313
:1043C000D6020E94631D8091E10080FF19C0809198
:1043D000E20080FF15C08091E2008E7F8093E200B2
:1043E0008091E20080618093E2008091D800806239
:1043F0008093D80019BC85E08093D6020E94771D77
:104400008091E10084FF2BC08091E20084FF27C0EF
:1044100080E189BD82E189BD89B5982F917080FFC7
:10442000FBCF8091D8008F7D8093D8008091E100F0
:104430008F7E8093E1008091E2008F7E8093E20086
:104440008091E20081608093E2008091D202882313
:1044500009F449C084E08093D6020E94801D8091B7
:10446000E10083FF29C08091E20083FF25C0809195
:10447000E100877F8093E10082E08093D602109272
:10448000D2028091E1008E7F8093E1008091E20072
:104490008E7F8093E2008091E20080618093E20051
:1044A00042E060E080E00E94A6208091F0008860F9
:1044B0008093F0000E94741DFF91EF91BF91AF9126
:1044C0009F918F917F916F915F914F913F912F912C
:1044D0000F900FBE0F901F90189519BC1092D60226
:1044E0000E94711D70CF8091E30087FD93E090934F
:1044F000D602B3CF1F920F920FB60F9211242F93B3
:104500003F934F935F936F937F938F939F93AF935B
:10451000BF93CF93DF93EF93FF93D091E900DF70C8
:104520008091EC00C82FC17080FDC0E81092E900B6
:104530008091F000877F8093F00078940E94BE22E3
:104540001092E9008091F00088608093F000CD2BFC
:10455000CF70C093E900FF91EF91DF91CF91BF91B0
:10456000AF919F918F917F916F915F914F913F910B
:104570002F910F900FBE0F901F901895AAE2B0E0F8
:10458000E4ECF2E20C94512487ED92E02091F100EA
:10459000FC012193CF01F2E08F3D9F07B9F70E9404
:1045A000AA1D8091E80083FF1EC18091D7029091DF
:1045B000D8029A3008F017C1E92FF0E0E350FB4D24
:1045C0000C943524803899F0823809F00CC1809120
:1045D000DB028F70873008F006C18093E90080917C
:1045E000EB0085FB882780F91092E90006C08091D6
:1045F000D3029091D402911182609091E800977F4C
:104600009093E8008093F1001092F1008091E8000F
:104610008E77E5C0882309F4D3C0823009F0E3C067
:104620008091D9028111D6C08091DB028F702FEF6B
:10463000280F263008F0D7C08093E9002091EB00C6
:1046400020FFC8C0933031F48091EB0080628093EA
:10465000EB00C0C09091EB0090619093EB0021E0E3
:1046600030E001C0220F8A95EAF72093EA00109209
:10467000EA008091EB008860EACF8111B4C010910C
:10468000D9021F778091E3008078812B8093E3002B
:104690008091E800877F8093E8000E94DA20809173
:1046A000E80080FFFCCF8091E30080688093E30006
:1046B00082E0111183E08093D60295C08058823049
:1046C00008F091C08091D9029091DA028C3D23E0EC
:1046D0009207A1F583E08A838AE289834FB7F89431
:1046E000DE01139620E03EE051E2E32FF0E050932C
:1046F0005700E49120FF03C0E295EF703F5FEF7039
:104700008E2F90E0EA30C0F0C7968D939D932F5F77
:10471000243159F74FBF8091E800877F8093E800EC
:104720006AE270E0CE0101960E94E91F8091E800E4
:104730008B778093E80057C0C096E7CF6091DB028B
:104740007091DC02AE014F5F5F4F0E94DB1EBC0127
:10475000892B09F448C09091E800977F9093E80076
:1047600089819A810E944720E1CF8038E1F58091CC
:10477000E800877F8093E8008091D2028093F10067
:1047800045CF811130C09091D902923060F580916F
:10479000E800877F8093E8009093D2020E94DA209D
:1047A0008091D202882311F084E005C08091E3005B
:1047B00087FDFACF81E08093D6020E948B1D13C043
:1047C0008091D902813079F481E0933009F080E062
:1047D0008093D4021092E9008091E800877F809353
:1047E000E8000E94DA208091E80083FF0AC08091EF
:1047F000E800877F8093E8008091EB0080628093DF
:10480000EB00AA96E3E00C946D240895CF93809179
:10481000D6028823A1F0C091E900CF709091EC00FE
:10482000892F817090FD80E8C82B1092E90080915B
:10483000E80083FD0E94BE22CF70C093E900CF91B3
:10484000089597FB072E16F4009407D077FD09D042
:104850000E94792407FC05D03EF4909581959F4FE6
:104860000895709561957F4F0895EE0FFF1F059095
:10487000F491E02D099469279627692778278727DF
:10488000782708952F923F924F925F926F927F9276
:104890008F929F92AF92BF92CF92DF92EF92FF9250
:1048A0000F931F93CF93DF93CDB7DEB7CA1BDB0BFC
:1048B0000FB6F894DEBF0FBECDBF09942A883988A1
:1048C00048885F846E847D848C849B84AA84B984A8
:1048D000C884DF80EE80FD800C811B81AA81B981B4
:1048E000CE0FD11D0FB6F894DEBF0FBECDBFED01C8
:1048F0000895AA1BBB1B51E107C0AA1FBB1FA61727
:10490000B70710F0A61BB70B881F991F5A95A9F778
:1049100080959095BC01CD010895FB01DC0104C098
:104920008D910190801921F441505040C8F7881BA7
:10493000990B0895F999FECF92BD81BDF89A9927F8
:1049400080B50895A8E1B0E042E050E00C94CE2498
:10495000262FF999FECF92BD81BDF89A019700B438
:10496000021639F01FBA20BD0FB6F894FA9AF99AD8
:104970000FBE08950396272F0E94A9240E94A82401
:10498000252F0E94A924242F0C94A9240196272FB7
:104990000E94A9240C94A824DC01CB01FC01F99904
:1049A000FECF06C0F2BDE1BDF89A319600B40D927B
:1049B00041505040B8F70895F894FFCF42064206A0
:1049C0007306730600071C07A206A20627078E07B8
:1049D0009D079D0701160D16351641164C165716E4
:1049E0005A165A165A165A165A165D16611669162E
:1049F00076168316861689169616E2220A23F32364
:0E4A00000A23F3233D235E23F323B523C123B2
:104A0E002402280850011E0A1401A01CC51CA41C57
:104A1E00341D2F1DA31C01E200E900EA00B500B60B
:104A2E0000B700CD008301CC008A019201940121D0
:104A3E0002230224022502260227022A02B300B410
:104A4E00006F007000818283E200E900EA00B50089
:104A5E00B600B700CD008301CC008A01920194010B
:104A6E002102230224022502260227022A02B30073
:104A7E00B4006F007000818283F7676697969594F5
:104A8E009392919037363534333231F0F1F4F5F6A6
:104A9E004022B6E3040B042D04B003C903E903005E
:00000001FF
